:020000040800F2
:10000000C013002045010008B10A00085909000882
:1000100000000000000000000000000000000000E0
:100020000000000000000000000000006F10000849
:100030000000000000000000910D000851110008B0
:100040005701000857010008570100085701000830
:100050005701000857010008570100085701000820
:100060005701000857010008570100085701000810
:10007000570100085701000857010008D511000872
:1000800057010008000000000000000057010008B0
:100090000000000057010008570100085701000840
:1000A000000000005701000857010008D7110008A0
:1000B000D911000800000000670800085701000877
:1000C0000348854600F058FA00480047D117000859
:1000D000C0130020064B19680868203080F3098897
:1000E000022080F314883FBCAE4662B600BD00001B
:1000F00050000020EFF3108072B6704780F3108834
:100100007047EFF309800E4B1A6820381060F0C07A
:1001100044464D4656465F46F0C008B572B602F0FA
:1001200009FA62B60CBC116808681030F0C8A04625
:10013000A946B246BB4680F309882038F0C8184764
:10014000500000200448804704480047FEE7FEE7CF
:10015000FEE7FEE7FEE7FEE759110008C1000008D0
:1001600030B50B46014600202022012409E00D464F
:10017000D5409D4205D31D469540491B25469540D7
:1001800040191546521E002DF1DC30BD03460B43CD
:100190009B0703D009E008C9121F08C0042AFAD23D
:1001A00003E00B780370401C491C521EF9D27047C3
:1001B000D2B201E00270401C491EFBD270470022FF
:1001C000F6E710B513460A4604461946FFF7F0FF56
:1001D000204610BDF0B51FB488B00B9909980024D3
:1001E00048400999C00F490049080991C0070B9977
:1001F0000090490049080B9109990898A6460843C0
:100200001CD00B990A98084318D009980124400083
:10021000420D4800410D099824050003000B2043BE
:1002200009900B980003000B20430B9050181C49B9
:100230004018002201901446104605E000200146B7
:100240000DB0F0BD032801DA034600E003239C460D
:10025000C11A0AAE0AE05F0008ADED5B4F00F75B24
:100260007D430027AA187C41491C5B1E6145F2DDD5
:10027000410004AB5A522104120C0A43240C401CC6
:100280000828DFDB019802900099704601910090E8
:10029000059B049A0799069800F01CF9D0E7000026
:1002A0000DFCFFFFF0B50C465C4085B0E40FE407A1
:1002B00003944C00002664085900944649080246FD
:1002C0000296224321D062460A431ED06200570D97
:1002D0004A000E032303550D012402462C49240530
:1002E000781B1B0B360B40182343264361460090B6
:1002F0001C46501AB44103D30098401C009002E001
:10030000921800985B41002803DA0020014605B0EE
:10031000F0BD0020012109050746864611E064462C
:100320001D46141BB54106D36546521BB3417446A6
:1003300007430C43A646CD074008490828439218B6
:100340005B4105460D43EAD11046184313D0604681
:10035000194650407140084306D06046101AB34118
:1003600006D20122002306E000220123DB0702E07F
:100370000122D2435310009874460105381C614194
:10038000029C039D0019694100F097F8BFE7000047
:10039000FD0300000EB505490291002100910A46B7
:1003A0000B46019100F096F803B000BD3304000045
:1003B000C20FD207400040080BD0C10D0723DB015C
:1003C000C91840020905400A1143C20840071143F9
:1003D000704700200146704710B5002904DB012456
:1003E000E40740428C412146002B04DB1C460123DC
:1003F000DB075242A3418B4200D1824210BD000074
:10040000CB0FDB07490010B5490802460A4307D065
:100410000A0D07240903E401090B121B002A01DC61
:10042000002010BDC900440F0C43C100E018D205E4
:10043000801800F001F810BD002904DA401C4900C2
:1004400001D140084000704770B40024050C05D16C
:100450001024000402D1002921D01124050E01D15D
:1004600000020834050F01D10001241D850F01D1C0
:100470008000A41C002801DB4000641C002908D077
:1004800020252E1B0D46F540A14000D00121294317
:10049000084301061B1B000ADB1D02D5002070BCAF
:1004A0007047DB05181880180029F8DA401C49004D
:1004B000F5D170BC40084000704710B5002B08DA39
:1004C0000024401C614192185B411A4301D140084D
:1004D000400010BDF0B51FB482B005460C0003D03B
:1004E000084600F0EDFE02E000F0EAFE2030024691
:1004F00000902146284600F051F8049B059A0446D6
:100500000F4618431143084314D0184610431BD01C
:10051000009840210A1A1846059900F04FF8054640
:100520000E46009A0599049800F038F8084305D063
:10053000012004E02046394607B0F0BD0020C11775
:1005400005430E432C43374300990E986305401A28
:100550007905E40A00220C43FD0A0A3002D5002086
:100560000146E9E70105101969410C9C0D9D001930
:100570006941FFF7A2FFDFE7064C0125064E05E0C3
:10058000E36807CC2B430C3C98471034B442F7D3B4
:10059000FFF79AFD303000085030000810B5202ACF
:1005A00004DB0146203A9140002010BD91402023F9
:1005B0009C1A0346E3401943904010BD10B5202A11
:1005C00004DB0846203AD040002110BD0B46D34042
:1005D000D0402024A21A91400843194610BD10B5FE
:1005E0000B460021846A1C43846200BF0C461443FE
:1005F0002146416110BD0000B0E0A52058490870B7
:1006000058480068401C574908600846007854491B
:10061000487054480068632802D30020514908609C
:1006200000F0D4FE50490888C117890F09188910B5
:100630004D4A11801046007849498870104600885C
:100640000012C87000F070FE47490888C117890F72
:1006500009188910444A11801046007840490871F1
:10066000104600880012487100F0A6FF3E4800883E
:1006700001210903081A3C4908800888C117890F1D
:1006800009188910384A1180104600783449887159
:10069000104600880012C87101F032F8324908880B
:1006A000C117890F091889102F4A11801046007848
:1006B0002B490872104600880012487280212B488E
:1006C00000F03CF9002803D10120254988720DE093
:1006D00001218902254800F031F9002803D10220C8
:1006E0001F49887202E000201D49887200F012FF45
:1006F0001D490888C117090F091809111A4A1180E4
:10070000104600781649087500F0B2FE16490888B0
:10071000C117090F09180911134A118010460078F2
:100720000F494875002012490860002408E00C4871
:10073000005D0F49096840180D490860601CC4B28B
:100740001E2CF4DB0A4800780549887708480088A1
:100750000004000EC8770A2001F0E6FD4DE7000016
:10076000C0000020200000201200002000040048EB
:1007700024000020002904D0826801231A438260EB
:1007800003E0826802231A438260704710B5044672
:100790000548844207D10121401500F03DFB0021AE
:1007A000601500F039FB10BD0024014030B5014652
:1007B0000020002200238C680125ED072C438C606B
:1007C00000BF8C68E30FDB07521C0F242403A242F6
:1007D00001D0002BF5D18C68E40FE407002C01D187
:1007E000086C00E0002030BD0146086C80B2704704
:1007F00030B5024600200023012424060C40002CC2
:1008000005D0946801252D06AC43234600E013680B
:100810001C460C40002C01D0012000E0002030BD1F
:1008200010B50022C268084B1A400C7964030B68AB
:1008300023438C682343CC6823430C6923434C69CE
:1008400023431A43C26010BD03D2FFFF8168042214
:100850001143816070470021016001718160C160B6
:100860000161416170477047F0B50A4600210023DD
:10087000002400BF3DE001258D402B4615681D403A
:100880002C469C4234D11579012D02D01579022DC8
:1008900016D185684F000326BE40B5438560557963
:1008A0004E00B540866835438560858801268E40B8
:1008B000B5438580858896798E40B6B2354385806C
:1008C00005684F000326BE40B543056015794E000C
:1008D000B540066835430560C5684F000326BE4035
:1008E000B543C560D5794E00B540C6683543C5608F
:1008F000491C1029BFD3F0BDF0B5002300244D07DB
:10090000EE0E1546B5402B46CD10AE0005462035FF
:10091000AD594E07F70E0F26BE40B543CE10B600B8
:1009200007462037BD51CD10AE003D46AD591D43A1
:100930002C46CD10AD003E467451F0BD024600205D
:10094000138A0B40002B01D0012000E000207047EB
:10095000018570478161704700BFFEE71CB501212A
:100960001120800400F018FA00216846017101216D
:1009700081710021C171012141718020009069467F
:100980000B48FFF771FF012080020090694608487C
:10099000FFF76AFF4020009069460648FFF764FFB2
:1009A0008020009069460348FFF75EFF1CBD0000F1
:1009B00000040048001400481CB501210320400435
:1009C00000F0EAF9012168460171002181710221DC
:1009D000C17101214171C802009069460548FFF7C5
:1009E00043FF0120C003009069460920C006FFF7BD
:1009F0003BFF1CBD0004004810B5FFF7DDFFFFF70B
:100A0000ADFF0121C9022848FFF7A2FF0121C90358
:100A10000920C006FFF79CFF0121C9022248FFF709
:100A200099FF0121C9030920C006FFF793FF00F0D9
:100A300071F900F001FA00F07BF80446012C11D0A6
:100A40000FE00121C9021848FFF784FFC82000F019
:100A5000A9FE0121C9021448FFF77AFFC82000F05F
:100A6000A1FEEEE700F026F800F08AF80EE000F0B4
:100A7000ADFC0E490888C117890F091889100B4A67
:100A8000118010460088642800DA00E0EFE700BF1C
:100A90000121C9020448FFF75BFF0121C9030920B6
:100AA000C006FFF755FF10BD0004004812000020EB
:100AB0007047000010B5FF2101310920C006FFF783
:100AC00047FFFF2101310920C006FFF741FF052242
:100AD00015492A2000F0E7F805221449302000F0DB
:100AE000E2F80121212000F0FDF80121222000F090
:100AF000F9F81A21242000F0F5F82821252000F02B
:100B0000F1F82021312000F0EDF82621084600F010
:100B1000E9F80E21202000F0E5F8FF21013109203D
:100B2000C006FFF717FF10BD1900002014000020B9
:100B30001CB511A103C9019100900522694630201E
:100B400000F0B1F80020694608700522102000F07E
:100B500043F8002406E06846005DA52800D003E0C5
:100B6000601CC4B2052CF6DB00BF052C01D00020B0
:100B70001CBD0120FCE70000A5A5A5A5A50000005F
:100B80001CB50121880400F007F901200003009042
:100B9000002168460171C171032141716946024813
:100BA000FFF762FE1CBD00000004004810B50720DE
:100BB00000F032F8044620202040002803D0FF2116
:100BC000272000F08FF810202040002803D0FF21BC
:100BD000272000F087F810BDF8B507460D461646E9
:100BE0000121C9020920C006FFF7B2FE384600F015
:100BF0000FFA0090002405E0002000F009FA2855C3
:100C0000601CC4B2B442F7DB0121C9020920C0064E
:100C1000FFF7A0FE0098F8BD70B504460121C90297
:100C20000920C006FFF794FE204600F0F1F90020ED
:100C300000F0EEF905460121C9020920C006FFF7C0
:100C400089FE284670BD000012E00A2001F06CFB0E
:100C500002E0012001F068FB40210648FFF76EFE2C
:100C60000028F6D1FFF7A2FF2021034800F006F884
:100C7000EBE7000000040048C000002070B5044607
:100C80000D46FF2101310920C006FFF761FE2A460B
:100C90002146A02000F007F8FF2101310920C006FD
:100CA000FFF758FE70BDF8B507460D461646012100
:100CB000C9020920C006FFF74BFE384600F0A8F92C
:100CC0000090002404E0285D00F0A2F9601CC4B28A
:100CD000B442F8DB0121C9020920C006FFF73AFE41
:100CE0000098F8BD70B505460C460121C9020920DF
:100CF000C006FFF72DFE284600F08AF9064620467A
:100D000000F086F90121C9020920C006FFF722FE82
:100D1000304670BD7047000010B5002819DA1A4A35
:100D200003071B0F083B9B089B00D2588307DC0E70
:100D3000FF23A3409A438B071B0E8407E40EA340B6
:100D40001A43114B0407240F083CA408A4001A51AD
:100D500018E00E4A03231B02D21883089B00D258C6
:100D60008307DC0EFF23A3409A438B071B0E8407E7
:100D7000E40EA3401A43054B032424021B198408E4
:100D8000A4001A5110BD00001CED00E000E100E0DD
:100D900010B5FFF7B6F910BD002905D0054A526914
:100DA0000243044B5A6104E0024A52698243014BF8
:100DB0005A61704700100240002905D0054AD269E7
:100DC0000243044BDA6104E0024AD2698243014BD8
:100DD000DA61704700100240002905D0054A126907
:100DE0000243044B1A6104E0024A12698243014B38
:100DF0001A61704700100240002905D0054A926927
:100E00000243044B9A6104E0024A92698243014B17
:100E10009A61704700100240002905D0054AD26847
:100E20000243044BDA6004E0024AD2688243014B79
:100E3000DA6070470010024000B587B001218803D6
:100E4000FFF7BAFF012103204004FFF7A5FF0022AE
:100E50000D210920C006FFF74FFD00220E210920B9
:100E6000C006FFF749FD00220F210920C006FFF749
:100E700043FD022168460176002181760221C17678
:100E8000012141768803059005A92E48FFF7ECFC67
:100E900001204003059005A92A48FFF7E5FC012041
:100EA000C003059005A92748FFF7DEFC012168462D
:100EB0000176002181760121C1764176C802059034
:100EC00005A90920C006FFF7CFFC0121684601767D
:100ED000002181760121C17641760802059005A99D
:100EE0000920C006FFF7C0FC0121C9020920C00685
:100EF000FFF730FD144800F037F800216846018004
:100F00000721090281800021C1800181012149025C
:100F10004181082181810021C18107210182FF21B6
:100F2000053141806946084800F046F8012109036F
:100F3000054800F08DF80121034800F007F807B0DC
:100F400000BD00000004004800380040002904D023
:100F5000028840231A43028003E00288014B1A40B2
:100F600002807047BFFF000010B504460B48844262
:100F700008D101218014FFF74FFF0021A014FFF7D3
:100F80004BFF0AE00648844207D101210014FFF715
:100F900023FF00212014FFF71FFF10BD0030014088
:100FA000003800400246002013890B40002B01D07E
:100FB000012000E00020704710B500220288C12304
:100FC0009B011A400B88CC892343CC8823430C898E
:100FD00023434C8923438C8923431A43028082880C
:100FE000084B1A408B881A4382800B8A038202883E
:100FF000054B1A404B881A430280838B034C2340D5
:10100000838310BDFFF00000FBFF0000FFF700002E
:1010100010B5044600BF02210948FFF7C3FF0028AE
:10102000F9D02146064800F01DF800BF0121044810
:10103000FFF7B8FF0028F9D0014800F003F810BD11
:1010400000380040014600220A460C3210787047F2
:101050008288034B1A40828082880A4382807047CC
:10106000FFEF0000002202460C321170704710B5ED
:1010700001F018F910BD00000CB50020019000909F
:10108000314800680121090408432F49086000BF66
:101090002D48006801214904084000900198401C37
:1010A00001900098002804D1052109030198884285
:1010B000EED125480068012149040840002802D0EB
:1010C0000120009001E0002000900098012839D113
:1010D00011201E4908601C4840681B4948600846AA
:1010E00040684860084640687F21C9038843164924
:1010F00048600846406811210904084312494860C5
:10110000084600680121090608430F49086000BF2E
:101110000D4800680121490608400028F8D00A4817
:1011200040688008800008494860084640680221FD
:1011300008430549486000BF034840680C21084047
:101140000828F9D10CBD0000001002400020024028
:1011500010B501F051FA10BD10B51B48006801210F
:10116000084319490860084640681849084016496C
:101170004860084600681649084013490860084658
:1011800000680121890488430F49086008464068C7
:101190003F21090488430C4948600846C06A000999
:1011A0000001C8620846006BFF215431884306499C
:1011B00008630846406B4008400048630020886090
:1011C000FFF75AFF10BD0000001002400CB8FFF8F6
:1011D000FFFFF6FE704770477047000086B000279B
:1011E00000245EE07D20C00001F09EF800F036FA99
:1011F0002C480088FFF7CEF805462B4A2B4BFEF70C
:10120000E9FF002201239B0701910090FEF7E2FF16
:101210000022274B03910290FFF744F805910490B8
:10122000FFF7EEF807463846FFF7C2F805461E4AB4
:101230005242204BFFF7D0F828D20C212046FEF76F
:101240008FFF00290BD10121C9021B48FFF782FB48
:101250000121C9030920C006FFF77CFB10E016211D
:101260002046FEF77DFF00290AD10121C90212485C
:10127000FFF76EFB0121C9030920C006FFF768FBD9
:10128000641C0E4884420CD900240AE00121C902E2
:101290000948FFF75DFB0121C9030920C006FFF7DC
:1012A00057FB9FE7120000206666666666660A4086
:1012B0000000B04099990D400004004840420F00E2
:1012C0002021020C01D010211046020A01D0104644
:1012D0000839020901D01046091F820801D01046C2
:1012E000891E420801D0881E7047081A704730B422
:1012F0007446641E2578641CAB4204D3635D5B00B6
:10130000E31830BC18471D46F8E702E008C8121F72
:1013100008C1002AFAD170477047002001E001C1DE
:10132000121F002AFBD1704700B589B00121480483
:10133000FFF732FD01214802FFF75EFD0120019019
:101340000321684601720021C17201A90920C0066B
:10135000FFF78AFA1B48FFF719FA03A8FFF77BFA91
:101360000020039001216846017400200590079039
:10137000089003A91348FFF753FA072201211148E7
:10138000FFF72DF90F48FFF711FA01210D48FFF77C
:10139000F1F900BF01210B48FFF72AFA0028F9D024
:1013A0000848FFF753FA00BF04210648FFF720FA68
:1013B0000028F9D00348FFF717FA0349088009B05D
:1013C00000BD0000002401401200002000B589B0DB
:1013D00001214804FFF7E0FC01214802FFF70CFD62
:1013E000022001900321684601720021C17201A907
:1013F0000920C006FFF738FA1B48FFF7C7F903A812
:10140000FFF729FA002003900121684601740020AB
:1014100005900790089003A91348FFF701FA0722E7
:1014200002211148FFF7DBF80F48FFF7BFF9012150
:101430000D48FFF79FF900BF01210B48FFF7D8F9CE
:101440000028F9D00848FFF701FA00BF0421064838
:10145000FFF7CEF90028F9D00348FFF7C5F9034993
:10146000088009B000BD00000024014012000020E7
:1014700000B589B001214804FFF78EFC0121480224
:10148000FFF7BAFC04200190032168460172002195
:10149000C17201A90920C006FFF7E6F91B48FFF752
:1014A00075F903A8FFF7D7F90020039001216846DA
:1014B0000174002005900790089003A91348FFF7D6
:1014C000AFF9072204211148FFF789F80F48FFF709
:1014D0006DF901210D48FFF74DF900BF01210B48BF
:1014E000FFF786F90028F9D00848FFF7AFF900BFE9
:1014F00004210648FFF77CF90028F9D00348FFF7DC
:1015000073F90349088009B000BD000000240140C0
:101510001200002000B589B001214804FFF73CFC0F
:1015200001214802FFF768FC08200190032168466A
:1015300001720021C17201A90920C006FFF794F9C8
:101540001B48FFF723F903A8FFF785F90020039054
:10155000012168460174002005900790089003A9B6
:101560001348FFF75DF9072208211148FFF737F804
:101570000F48FFF71BF901210D48FFF7FBF800BFEB
:1015800001210B48FFF734F90028F9D00848FFF78C
:101590005DF900BF04210648FFF72AF90028F9D0B9
:1015A0000348FFF721F90349088009B000BD000096
:1015B000002401401200002000B589B00121480438
:1015C000FFF7EAFB01214802FFF716FC102001900B
:1015D0000321684601720021C17201A90920C006D9
:1015E000FFF742F91B48FFF7D1F803A8FFF733F9DB
:1015F00000200390012168460174002005900790A7
:10160000089003A91348FFF70BF90722102111488E
:10161000FEF7E5FF0F48FFF7C9F801210D48FFF776
:10162000A9F800BF01210B48FFF7E2F80028F9D024
:101630000848FFF70BF900BF04210648FFF7D8F868
:101640000028F9D00348FFF7CFF80349088009B014
:1016500000BD0000002401401200002000B589B048
:1016600001214804FFF798FB01214802FFF7C4FB62
:10167000202001900321684601720021C17201A956
:101680000920C006FFF7F0F81B48FFF77FF803A812
:10169000FFF7E1F800200390012168460174002063
:1016A00005900790089003A91348FFF7B9F807229F
:1016B00020211148FEF793FF0F48FFF777F801212B
:1016C0000D48FFF757F800BF01210B48FFF790F8CE
:1016D0000028F9D00848FFF7B9F800BF04210648F0
:1016E000FFF786F80028F9D00348FFF77DF8034993
:1016F000088009B000BD0000002401401200002055
:1017000000B589B001214804FFF746FB01214802DA
:10171000FFF772FB4020019003216846017200210F
:10172000C17201A90920C006FFF79EF81B48FFF708
:101730002DF803A8FFF78FF80020039001216846D9
:101740000174002005900790089003A91348FFF743
:1017500067F8072240211148FEF741FF0F48FFF7C5
:1017600025F801210D48FFF705F800BF01210B48BE
:10177000FFF73EF80028F9D00848FFF767F800BFE8
:1017800004210648FFF734F80028F9D00348FFF792
:101790002BF80349088009B000BD00000024014077
:1017A000120000200CE04B210901084A116000BF23
:1017B00006490A680968491E044B1960002AF7D1D6
:1017C0000146421E90B20029EDD170470000002072
:1017D0001FB50025FFF710F97D21C90042480068B8
:1017E000FEF7BEFC0446601E4049884201D9012034
:1017F0000CE0601E3E4948610321081FFFF78CFA88
:1018000000203B498861072008610020002801D0A2
:1018100000BFFEE700200523019002900093039093
:101820000346642233A1374801F05EF905460020E3
:10183000042301900290009303900346642232A196
:10184000354801F051F9054600200323019002902C
:10185000009303900346642230A1344801F044F918
:101860000546012D3BD1C1023148FFF771F8E9036C
:101870000920C006FFF76CF8C820FFF793FFE902C4
:101880002B48FFF767F8E9030920C006FFF762F865
:10189000C820FFF787FFE9022548FFF759F8E90359
:1018A0000920C006FFF754F8C820FFF77BFFE902C4
:1018B0001F48FFF74FF8E9030920C006FFF74AF871
:1018C000C820FFF76FFFE9021948FFF741F8E90365
:1018D0000920C006FFF73CF800F0F6FD01E000BF6C
:1018E000FEE700BFFEE7000088000020FFFFFF00CA
:1018F00000E000E04E52465F53656E645F546173D2
:101900006B000000490C000856616C5F436865631A
:101910006B5F5461736B0000DD1100084144435F4D
:10192000436865636B5F5461736B0000F9050008E1
:101930000004004810B504460E48006844600E4894
:101940000068844207D20B480168091D0B480068F3
:1019500000F03CFC0CE007480168091D08480068DD
:1019600000F034FC07480068844201D20548046056
:1019700010BD00005000002064000020580000202E
:10198000540000208000002070B505460E4654200B
:1019900000F07CFB0446002C14D0002E03D1A800DC
:1019A00000F074FB00E030462063206B002804D177
:1019B000204600F055FC002404E0A900A522206B7D
:1019C000FEF7F6FB204670BD10B500F027FC154869
:1019D0000068002822D1144800F0E8FB134800F00A
:1019E000E5FB1148124908601048124908600022BE
:1019F0000C21052000F012FE0A4908600846006824
:101A0000002802D172B600BFFEE706480068002831
:101A100004D009A10348006800F052FC00F00CFC5F
:101A200010BD000048000020280E00203C0E0020C1
:101A30004000002044000020546D7251000000005E
:101A400070B525E000F06EFD14480068002801D153
:101A5000012000E00020054601F01AFA002D17D100
:101A600000F0DCFB0D48C068C468201D00F08AFB54
:101A70000B480068401E0A4908600A480068401E7A
:101A80000849086000F0D8FB204600F065F800BF68
:101A9000044800680028D5D170BD0000540F002014
:101AA000600000205C00002070B504460D46206CEC
:101AB00000280ED0216CE0684018E0606168E068A2
:101AC000884201D32068E0602846226CE168FEF776
:101AD0005DFB70BDF8B504460E4615460027206C28
:101AE000002809D12068002831D1606801F056F93A
:101AF0000746002060602AE0002D0FD13146226C9D
:101B0000A068FEF743FB216CA0684018A0606168E4
:101B1000A06888421BD32068A06018E03146226C80
:101B2000E068FEF733FB216CE068401AE060216852
:101B3000E068884203D2216C6068401AE060022DA0
:101B400005D1A06B002802D0A06B401EA063A06B43
:101B5000401CA0633846F8BD10B50446206B00F069
:101B60007FFB204600F07CFB10BD00000146094AC7
:101B700012681268002A01D1012200E000220A60E6
:101B80000A68002A04D1034A1268D268106800E08B
:101B900000207047400000200A4AD008C0000A4ACE
:101BA00010600022084B5A6035229201074B5A60A0
:101BB00000221A600146352292014A601A460A60E4
:101BC00070470000E80000202800002030000020BE
:101BD00000BFFFF735FF034800680128F9D900F07E
:101BE00063FBF6E7500E0020F8B504460F46154695
:101BF000002608E0B95D204634308155B85D0028E4
:101C000000D102E0761C102EF4D300BF0021432047
:101C100001550A2D00D30925E562E5640020206501
:101C2000201D00F0D0FA2046183000F0CCFA2461D4
:101C30000A20401BA0616462F8BD000010B50024BA
:101C400006E0142161430E4A881800F0AFFA641CC4
:101C50000A2CF6D30B4800F0A9FA0B4800F0A6FABC
:101C60000A4800F0A3FA0A4800F0A0FA094800F078
:101C70009DFA04480849086003480849086010BDF7
:101C8000500E0020180F00202C0F0020400F0020C5
:101C9000540F0020680F002054000020580000203E
:101CA000F8B504460D4616461F46002000906560B4
:101CB0002461B5420CD8F01BA169884202D30120EF
:101CC000009011E0211D0948006800F07FFA0BE048
:101CD000BE4204D2BD4202D30120009004E0211D87
:101CE0000348006800F072FA0098F8BD4400002034
:101CF0004000002070B5054600F090FAA86B00285F
:101D000001D1012400E0002400F096FA204670BDC5
:101D100070B5054600F082FAA86BE96B884201D1E4
:101D2000012400E0002400F087FA204670BD000086
:101D3000F8B505460F4613480068C068C468201D02
:101D400000F020FAE069012817D1A06941192B465B
:101D50003A462046FFF7A4FF01280ED10020034693
:101D60002A4601460090204601F02EF90646002E34
:101D700002D172B600BFFEE700BF2046616A884705
:101D8000F8BD00004000002070B586B060E0039808
:101D900000285DDB059C6069002801D1012000E07E
:101DA0000020002802D1201D00F0ECF902A800F06C
:101DB000A1F8054603980300FFF799FA0A0A0608F6
:101DC0002C2E4407092D2F4800BF00BF00BF00BFC5
:101DD0000498A269811803462A462046FFF760FF4F
:101DE000012816D12046616A8847E069012810D190
:101DF000002000900498A16942180023194620464B
:101E000001F0E2F80646002E02D172B600BFFEE7EE
:101E100000BF1CE000BF1AE000BF0498A061A069E9
:101E2000002801D0012000E00020002802D172B675
:101E300000BFFEE7A06941192B462A462046FFF75E
:101E40002FFF04E0204600F00BFA00E000BF00BFC7
:101E500000231A4603A90448006800F00DFC00287E
:101E600095D106B070BD000048000020F8B50446CA
:101E70000E4600F057FB684600F03CF80546009817
:101E8000002816D1002E08D1AC4206D801F000F887
:101E900029462046FFF74CFF0DE0611B064800680D
:101EA00000F024FA00F0F4FF002804D100F0FCF95F
:101EB00001E000F0EDFFF8BD480000200B49096883
:101EC0000968002901D1012100E00021002904D086
:101ED0000021C943064A116006E004490968C9683F
:101EE000C868034A41681160704700005400002030
:101EF0008000002070B5044600F0A4FE05460748A7
:101F00000068854204D200F015F80120206001E04D
:101F10000020206001480560284670BD4C0000206C
:101F20000248034948610720086170477FBB0000F1
:101F300000E000E0FEB52BE020480068C0680568BE
:101F40001E480068C068C468201D00F01BF92046C8
:101F5000616A8847E06901281AD1A0694619AE4232
:101F600007D966602461211D1448006800F02EF92D
:101F70000EE0002003462A4601460090204601F06C
:101F800023F80746002F02D172B600BFFEE700BF5C
:101F90000A4800680068002801D1012000E0002004
:101FA0000028C9D005480068019005480068034929
:101FB0000860034901980860FEBD00004000002051
:101FC0004400002007480068401C002801D101207F
:101FD00000E00020002802D172B600BFFEE772B612
:101FE00000BFFEE79C00002008B500BF6846FFF771
:101FF000BDFD044620460099FFF738FFFFF7C4FEF9
:10200000F4E710B5044600F009F914E0606A00280E
:1020100001D1012000E00020002808D12046243012
:1020200000F0F2FE002803D000F0AAF900E005E07D
:10203000A06C401EA064A06C0028E7DC00BF00205C
:10204000C043A06400F0F8F800F0E8F814E020695C
:10205000002801D1012000E0002000280BD12046FB
:10206000103000F0D1FE002801D000F089F9606C3A
:10207000401E606400E002E0606C0028E7DC00BF06
:102080000020C043606400F0D7F810BDF8B50446E6
:102090000020009000F046FA26480068002804D18D
:1020A000FFF77AFD012023490860002C09D008348D
:1020B0006007400F002804D06007400F0821081A6D
:1020C0000419002C32D03520800184422ED21A4FC0
:1020D0003846056801E02F462D686868A04202D2A4
:1020E00028680028F7D1154885421FD03868083085
:1020F0000090286838606868001B102810D92E19D5
:102100006868001B70606C6071680B4800E00068D4
:10211000026852688A42FAD302683260066000BFE1
:10212000074968680968081A0549086000F0B0FEA8
:102130000098F8BD3C00002028000020300000205E
:102140003800002006480068002806D004490968C5
:1021500008465030096D491C01600148006870470D
:1021600050000020001F01231B060360001F0160B8
:10217000001F034B036014380260203870470000D2
:10218000C51F000801460A694B68886898608B681B
:10219000486858605068884201D1886850600020C3
:1021A00008611068401E10601068704701460831D1
:1021B00041600021C943816001460831C16001616D
:1021C00000210160704700210161704710B502468F
:1021D0000B685C1C002C01D1106907E01046083028
:1021E00000E04068446824689C42FAD944684C6026
:1021F0004C68A160886041600A611468641C1460C6
:1022000010BD42684A6093688B6093685960916022
:10221000086103685B1C03607047000072B60548E4
:102220000068401C03490860BFF34F8FBFF36F8FF6
:10223000704700009C00002008480068002802D178
:1022400072B600BFFEE705480068401E03490860FB
:1022500008460068002800D162B670479C00002044
:1022600070B506463546002E16D0083D2C4600F0C7
:1022700059F96168094800E00068026852688A42BA
:10228000FAD3026822600460054960680968401852
:102290000349086000F0FCFD70BD0000280000202C
:1022A0003800002070470000012000070349486003
:1022B000BFF34F8FBFF36F8F7047000000ED00E05A
:1022C00010B5024600200BE0C300074CE358002B7A
:1022D00005D1C300E150C3001B195A6002E0401C45
:1022E0000828F1D300BF10BD7C0F002070B5054653
:1022F0000E462C46FFF792FF606C401C002800D170
:102300006064A06C401C002800D1A064FFF794FF1B
:10231000A06B002804D131462046243000F060F83C
:102320002046FFF76EFE70BD70B504460026002CF7
:102330001BD010480068002801D1012000E00020D7
:10234000002802D172B600BFFEE700F0EBF80A48A1
:102350000068051909480068001DFFF713FF2846AB
:10236000FFF7E8FA00F094FD0646002E01D1FFF7D2
:102370009BFF70BD840000206400002050000020FE
:1023800001200149086070477400002070B50546BF
:102390000C46002D02D172B600BFFEE70D48016861
:1023A00018312846FFF712FF0A480068001DFFF7A2
:1023B000E9FE601C002806D106480168091D064890
:1023C000FFF71FFF05E00548006806193046FFF7D4
:1023D000B1FA70BD50000020680F0020640000209A
:1023E00070B504460D46002C02D172B600BFFEE760
:1023F0000848016818312046FFF703FF05480068C8
:10240000001DFFF7BFFE0448006846193046FFF77D
:1024100091FA70BD500000206400002070B50546A0
:102420002C46002D39D01D49E06A0968C96A8842E6
:1024300033D2A069C00FC007002805D11748006833
:10244000C06A0A21081AA0611422E06A5043144AA3
:1024500080186169814201D1012000E0002000283C
:1024600017D0201DFFF78EFE0C480068C06AE0629E
:102470000C49E06A0968884202D90A49E06A0860A2
:102480001422E16A5143064A8818211DFFF7B9FE5C
:1024900003E002480068C06AE06270BD500000209E
:1024A000500E002068000020002802D172B600BF44
:1024B000FEE7034909680160024909684160704705
:1024C00078000020640000201FB5002000900190DB
:1024D000029003463C220EA103900F4800F004FB3B
:1024E0000446012C02D100F049FD0446012C09D11B
:1024F00072B601200949086000200949086000F00F
:102500005FF804E0002C02D172B600BFFEE71FBDE9
:1025100049444C4500000000D11B00086C0000201D
:102520006400002002480068401C014908607047B0
:10253000840000201D480068002803D001201C49A9
:10254000086032E000201A4908600BE01948006872
:10255000002802D172B600BFFEE716480068401E90
:102560001449086013480068142148431249085868
:10257000002801D1012000E000200028E6D10D490B
:102580000968142251430C4A88184168496841601F
:102590000146083142688A4202D141684968416077
:1025A0004168C968054A116000BF70478400002077
:1025B0007400002068000020500E00205000002011
:1025C00010B50B48006AFF21090408430849086256
:1025D0000846006AFF210906084305490862FFF71B
:1025E0009FFC002003490860FDF774FD002010BD2A
:1025F00000ED00E09C00002010B5FDF77BFD0446D7
:1026000000F02CFB002803D001200007024948609D
:102610002046FDF773FD10BD00ED00E0FEB5054658
:102620000E46174600200090002D1DD05420FFF7C5
:102630002DFD0446002C17D028467043401C019005
:102640000198FFF723FD20602068002809D0E5638A
:1026500026640121204600F0C7F850200755009459
:1026600002E02046FFF7FCFD0098002802D172B678
:1026700000BFFEE70098FEBDFFB583B005460E46DD
:10268000002002902C46002C02D172B600BFFEE75B
:10269000002E02D1206C002801D1012000E0002092
:1026A000002802D172B600BFFEE700F0B9FA002898
:1026B00002D10598002801D1012000E00020002867
:1026C00002D172B600BFFEE700BFFFF7A7FDA06B07
:1026D000002837D0E76831462046FFF7E5F906982D
:1026E000002819D1A06B401EA0632068002802D1E9
:1026F000FFF728FD60602069002801D1012000E07B
:102700000020002819D12046103000F07DFB012860
:1027100013D1FFF7C9FD10E0E760606A002801D11E
:10272000012000E00020002807D12046243000F0DE
:102730006BFB002801D0FFF7B7FDFFF77DFD0120FF
:1027400007B0F0BD0598002803D1FFF775FD002004
:10275000F6E70298002804D16846FFF7A5FE01209D
:102760000290FFF769FDFFF7DDFEFFF757FD606C94
:10277000401C002800D16064A06C401C002800D1DF
:10278000A064FFF759FD05A9684600F073F9002819
:1027900023D12046FFF7AEFA002818D02068002881
:1027A00006D1FFF73BFD6068FFF738FEFFF744FDF9
:1027B000204624300599FFF7E9FD2046FFF721FC6C
:1027C00000F066FB002880D1FFF76EFD7DE7204614
:1027D000FFF717FC00F05CFB77E72046FFF711FCE2
:1027E00000F056FB0020ABE770B505460E462C46C0
:1027F000002C02D172B600BFFEE7FFF70FFD216C7F
:10280000E06B48432168401860600020A0632068A6
:10281000A060E06B401E216C484321684018E060D6
:102820000020C0436064A064002E10D120690028FD
:1028300001D1012000E00020002810D120461030F6
:1028400000F0E2FA01280AD1FFF72EFD07E020464A
:102850001030FFF7ABFC20462430FFF7A7FCFFF752
:10286000EBFC012070BDFFB583B006461D4600207D
:1028700002903446002C02D172B600BFFEE70498E5
:10288000002802D1206C002801D1012000E00020A6
:10289000002802D172B600BFFEE7022D02D1E06B24
:1028A000012801D1012000E00020002802D172B6E9
:1028B00000BFFEE700F0B4F9002802D10598002817
:1028C00001D1012000E00020002802D172B600BF33
:1028D000FEE700BFFFF7A2FCA06BE16B884201D3CB
:1028E000022D1FD12A4620460499FFF7F3F8074628
:1028F000606A002801D1012000E00020002808D1F2
:102900002046243000F080FA012806D1FFF7CCFCE5
:1029100003E0002F01D0FFF7C7FCFFF78DFC01207B
:1029200007B0F0BD0598002803D1FFF785FC002013
:10293000F6E70298002804D16846FFF7B5FD0120AC
:102940000290FFF779FCFFF7EDFDFFF767FC606C85
:10295000401C002800D16064A06C401C002800D1FD
:10296000A064FFF769FC05A9684600F083F8002819
:1029700019D12046FFF7CCF900280ED020461030A0
:102980000599FFF703FD2046FFF73BFB00F080FAB7
:1029900000289FD1FFF788FC9CE72046FFF731FB1A
:1029A00000F076FA96E72046FFF72BFB00F070FA6E
:1029B0000020B5E7FFB583B0074615461E463C46E6
:1029C000002C02D172B600BFFEE70498002802D1A5
:1029D000206C002801D1012000E00020002802D155
:1029E00072B600BFFEE7022E02D1E06B012801D1D2
:1029F000012000E00020002802D172B600BFFEE7EF
:102A0000FDF778FB0190A06BE16B884201D3022EA9
:102A100027D1324620460499FFF75CF8002803D0FE
:102A2000002D01D001202860A06C401C002812D18C
:102A3000606A002801D1012000E0002000280DD1AB
:102A40002046243000F0E0F9002807D0002D05D002
:102A50000120286002E0A06C401CA06401200290CC
:102A600001E0002002900198FDF748FB029807B0B2
:102A7000F0BD000070B504460D46002C02D172B6C0
:102A800000BFFEE7002D02D172B600BFFEE7FFF7E0
:102A9000C5FB134802682868401C002801D10026A5
:102AA00019E0104920680968884204D060689042A3
:102AB00001D801260FE06068101A2968884209D2FF
:102AC00028686168511A401A28602046FFF7ECFC1C
:102AD000002600E00126FFF7AFFB304670BD000086
:102AE0006400002078000020FFB583B016460C9DDE
:102AF0000398002802D172B600BFFEE70A2D01D26A
:102B0000012000E00020002802D172B600BFFEE7DD
:102B100030460E99FEF738FF0446002C62D0701E36
:102B20008000216B081802900298C008C000029033
:102B300002984007400F002801D1012000E000204A
:102B4000002802D172B600BFFEE700962A46204652
:102B50000F9B0499FFF748F8069A03990298FFF72C
:102B600001FB20600D98002801D00D980460FFF74C
:102B700055FB25480068401C23490860234800682D
:102B8000002808D1214804600846006801280DD1BA
:102B9000FFF754F80AE01E480068002806D11B48D9
:102BA0000068C06AA84201D8184804601948006843
:102BB000401C184908600846006860641649E06ACD
:102BC0000968884202D91449E06A08601422E16A5F
:102BD0005143124A8818211DFFF713FB0127FFF705
:102BE0002BFB01E00027FF43012F0AD108480068B2
:102BF000002806D005480068C06AA84201D2FFF745
:102C000053FB384607B0F0BD6000002050000020A4
:102C10006C0000207C00002068000020500E002086
:102C200006490968002901D1012006E00449096824
:102C3000002901D1022000E0002070476C00002034
:102C40008400002010B5FFF7E9FA03480468FFF795
:102C5000F3FA204610BD000064000020F8B5002003
:102C6000009043480068002874D142480068401C26
:102C70004049086008460668002E1CD13E4800689E
:102C80000068002801D1012000E00020002802D1C6
:102C900072B600BFFEE73848076838480068364912
:102CA00008603648076036480068401C34490860B0
:102CB000FFF704F900BF3348006886423DD300BFE8
:102CC0002D4800680068002801D1012000E00020A4
:102CD000002804D00020C0432A4908602CE0264880
:102CE0000068C068C4686568AE4202D225480560C5
:102CF00022E0201DFFF746FAA06A002803D02046F4
:102D00001830FFF73FFA2049E06A0968884202D983
:102D10001D49E06A08601422E16A51431B4A881881
:102D2000211DFFF76EFA1A49E06A0968C96A8842EC
:102D3000C6D301200090C3E700BF15480068C06AF1
:102D40001421484311490858012808D9012000904E
:102D500005E0FFE70F480068401C0E4908600E4878
:102D60000068002801D0012000900098F8BD000004
:102D7000840000206400002054000020580000203F
:102D8000780000208000002068000020500E002005
:102D900050000020700000207400002070B505462F
:102DA0002C460026002D29D0206D002802D172B6B5
:102DB00000BFFEE7206D401E2065E16CE06A88429E
:102DC0001CD0206D002819D1201DFFF7DBF9E06C25
:102DD000E0620A21E06A081AA0610949E06A09680C
:102DE000884202D90649E06A08601422E16A514328
:102DF000044A8818211DFFF704FA0126304670BDE9
:102E000068000020500E002070B50646F068C468C7
:102E1000002C02D172B600BFFEE720461830FFF743
:102E2000B1F915480068002813D1201DFFF7AAF951
:102E30001249E06A0968884202D91049E06A0860CC
:102E40001422E16A51430E4A8818211DFFF7D9F96F
:102E500004E0214618310B48FFF7D3F90A49E06A2C
:102E60000968C96A884204D9012501200749086018
:102E700000E00025284670BD840000206800002086
:102E8000500E0020400F0020500000207400002051
:102E900070B5002531480068002802D172B600BF25
:102EA000FEE7FFF7BBF92D480068401E2B4908607C
:102EB0000846006800284CD129480068002848D0FE
:102EC00022E02848C068C46820461830FFF75AF945
:102ED000201DFFF757F92449E06A0968884202D9A2
:102EE0002149E06A08601422E16A51431F4A8818A8
:102EF000211DFFF786F91E49E06A0968C96A884200
:102F000002D301201B49086016480068002801D13F
:102F1000012000E000200028D3D0174800680028D6
:102F200010D00BE0FFF79AFE002802D001201149D3
:102F3000086011480068401E0F4908600E4800688C
:102F40000028EFD10B480068012802D10125FFF7C6
:102F5000ABF9FFF771F9284670BD0000840000202E
:102F600060000020400F002068000020500E00206C
:102F70005000002074000020700000201FB50024C5
:102F8000FEF722FD0C48006800280CD00020022328
:102F900001900290009303900346502207A1094834
:102FA000FFF7A2FD0446002C02D172B600BFFEE777
:102FB000204604B010BD000048000020546D72206F
:102FC00053766300E91F0008F0B585B005460C464E
:102FD00016461F460020039014480068002822D09F
:102FE000009401960295062C15DAFFF719FE0228C7
:102FF00008D1002369460D480A9A0068FFF733FCA0
:10300000039010E000231A46694608480068FFF75D
:103010002AFC039007E000233A466946034800680B
:10302000FFF7C8FC0390039805B0F0BD48000020EE
:103030005030000800000020A00000000A13000823
:10304000F0300008A0000020201300001A13000830
:103050000000000000000000000000000000000070
:10306000000000001331636685133163668500003C
:103070000000000000000000000000000000000050
:103080000000000000000000400D000000000000F3
:103090000000000000000000000000000000000030
:1030A0000000000000000000000000000000000020
:1030B0000000000000000000000000000000000010
:1030C0000000000000000000000000000000000000
:1030D000FFFFFFFF00000000006CDC0200000000AA
:1030E000000000000102030406070809AAAAAAAA10
:04000005080000C12E
:00000001FF
